:1000000009C05AC020C01FC01EC01DC01CC01BC0DC
:100010001BC019C011241FBECFE9CDBF10E0A0E660
:10002000B0E0E2EDF2E002C005900D92AC36B1070F
:10003000D9F720E0ACE6B0E001C01D92A137B207CD
:10004000E1F7DAD044C1DCCF1F920F920FB60F92C6
:1000500011242F933F934F935F936F937F938F93CD
:100060009F93AF93BF93EF93FF9380916000815074
:100070008093600081110FC060E083E0F0D08AE0DF
:100080008093600081E080936D0010926E0010926A
:100090006F0010927000FF91EF91BF91AF919F910F
:1000A0008F917F916F915F914F913F912F910F9021
:1000B0000FBE0F901F9018951F920F920FB60F92C0
:1000C00011248F9381E080936C0010926D008AE080
:1000D000809360008F910F900FBE0F901F90189526
:1000E000809170008E3F19F461E083E0B8C0E09128
:1000F0006F00F0E0EF59FF4F9081891719F081E010
:1001000080936D00089581E0C4D0813031F581E0A5
:10011000C0D08130E1F380E0BCD021E030E081113B
:1001200002C020E030E03695322F22273795279500
:10013000809170008695282B2093700080916E002E
:100140008F5F80936E00883040F0CADF10926E009F
:1001500080916F008F5F80936F00089560E083E06F
:100160007ED085B7877E806185BF85B7806285BF79
:10017000789485B7806285BF889585B78F7D85BF68
:1001800085B78F7D85BF089580916C00882319F015
:1001900010926C00B8DF80916D008111DFCF08955F
:1001A00081B5806481BD0895F89460E081E035D028
:1001B00060E080E032D061E083E02FD061E083E056
:1001C0004ED088EE93E01CD060E083E048D088EE0B
:1001D00093E016D061E083E042D088EE93E010D047
:1001E00060E083E03CD0DCDF85B7836085BF8BB700
:1001F00080648BBF789408950CD0D6DFC5DFFECF26
:10020000EFE5F9E03197F1F700C000000197C1F781
:10021000089583E083BF8FBD08958630F8F447B317
:1002200021E030E0613051F4B90102C0660F771F60
:100230008A95E2F7CB01842B87BB0895F90102C0B0
:10024000EE0FFF1F8A95E2F7CF012E2F2095242372
:1002500027BB623019F498B3892B88BB0895CF93DC
:10026000DF93863098F4D62FC82F823008F424D03C
:1002700028B381E090E001C0880FCA95EAF7DD233A
:1002800011F0822B02C08095822388BBDF91CF9131
:100290000895CF93863068F4C82F823008F40CD0CC
:1002A00086B390E002C095958795CA95E2F7817074
:1002B00001C080E0CF910895811103C08FB58F7781
:1002C00004C0813019F48FB58F7D8FBD0895F894E7
:0202D000FFCF5E
:0C02D2000A412E20545552494E470000AE
:00000001FF
