:1000000017C02FC02EC02DC02CC02BC02AC029C0A5
:1000100029C027C030453035303931453035313889
:1000200031393145313830423034304430460000C7
:1000300011241FBECFE9CDBF10E0A0E6B0E0ECE791
:10004000F1E002C005900D92A637B107D9F720E084
:10005000A6E7B0E001C01D92AB37B207E1F76BD065
:100060008BC0CECFEF93EFB7EF930F93E6E700810E
:100070000D4E02C000810F4F0193E0F70F91EF91F9
:10008000EFBFEF9118958153863130F4E82FF0E0FF
:10009000E05AFF4F8081089580E00895CF92DF926B
:1000A000EF92FF920F931F93CF93DF93E12CF12CEC
:1000B000CAE46C2F6C6181E08C0F48D0C82F682F88
:1000C000C7014DD08FEFE81AF80AE0E4EE16F1040C
:1000D00081F7CC7084E1C82E80E0D82EE12CF12C81
:1000E000D0E00AE4F6018491CEDF182FF6013196B4
:1000F0008491C9DF1295107F812B682F6027CE0174
:100100008E0D9F1D2CD0FFEFEF1AFF0A82E0C80E64
:10011000D11CEDE0EE16F10429F760E0CE010D965A
:10012000DF91CF911F910F91FF90EF90DF90CF90D3
:1001300016C0B4CF089503D0FCDFFCDFFECF83E010
:1001400083BF8FBD80E481BD78940895002480FD35
:10015000060E660F11F08695D1F7802D0895262F93
:10016000E199FECF1CBA8EBB2DBB0FB6F894E29A74
:0C017000E19A0FBE01960895F894FFCFAD
:10017C000102030405060708090000000000000046
:06018C000A0B0C0D0E0F22
:00000001FF
